:020000040800F2
:10000000B00800207501000821260008B924000866
:1000100000000000000000000000000000000000E0
:10002000000000000000000000000000252600087D
:10003000000000000000000023260008272600081A
:100040008701000800000000870100088701000800
:100050008701000887010008870100088701000860
:100060000000000021070008870100088701000840
:10007000870100088D2600088701000800000000A5
:100080008701000800000000000000008701000850
:1000900000000000870100088701000887010008B0
:1000A0008701000887010008870100088701000810
:1000B00019310008000000000000000000000000EE
:1000C00000F002F800F046F80CA030C808382418F8
:1000D0002D18A246671EAB4654465D46AC4201D180
:1000E00000F038F87E460F3E0FCCB646012633426C
:1000F00000D0FB1AA246AB4633431847CC3500006C
:10010000EC350000103A02D378C878C1FAD852070B
:1001100001D330C830C101D504680C6070470000BD
:100120000023002400250026103A01D378C1FBD813
:10013000520700D330C100D50B60704710B5642959
:1001400002D100F07FF810BD002010BD1FB51FBD0B
:1001500010B510BD00F005FA1146FFF7F7FF03F0E8
:1001600005F800F01DFA03B4FFF7F2FF03BC00F03E
:1001700023FA00000748804707480047FEE7FEE7EC
:10018000FEE7FEE7FEE7FEE704480549054A064BA1
:100190007047000089260008C1000008B002002056
:1001A000B0080020B0040020B00400200FB41CB53B
:1001B000084B06AA7B4469460090059800F0A5F913
:1001C00004460020694600F0B3F920461CBC08BC78
:1001D00004B0184779030000F8B50E460446002025
:1001E00020622046E1688847002829D0252802D0CF
:1001F0006268A16820E0E168204600278847050082
:100200001ED028464138192802D80127FF02203580
:100210003246204627602946FFF790FF002808D085
:10022000012804D0F61DF608F6000836D9E7361D79
:10023000D7E762682846A1689047206A401CCFE74C
:10024000206AF8BDF7B5002575291068009914A635
:1002500011D0C046C046002802DA404211A608E08C
:10026000009909688A0701D50FA602E0490704D55D
:100270000EA6012501E0C046C046009F0024243799
:1002800004E000F05AF930313955641C0028F8D1E7
:100290002B4632462146009800F0DAF8FEBD0000F9
:1002A000000000002D0000002B00000020000000D6
:1002B00001E004C0091F0429FBD28B0701D502808D
:1002C000801CC90700D00270704700290BD0C307FB
:1002D00002D00270401C491E022904D3830702D5B4
:1002E0000280801C891EE3E70022EEE70022DFE7A0
:1002F000002203098B422CD3030A8B4211D3002323
:100300009C464EE003460B433CD4002243088B42FC
:1003100031D303098B421CD3030A8B4201D3944689
:100320003FE0C3098B4201D3CB01C01A524183097C
:100330008B4201D38B01C01A524143098B4201D336
:100340004B01C01A524103098B4201D30B01C01A61
:100350005241C3088B4201D3CB00C01A52418308DB
:100360008B4201D38B00C01A524143088B4201D308
:100370004B00C01A5241411A00D201465241104668
:1003800070475DE0CA0F00D04942031000D34042DD
:10039000534000229C4603098B422DD3030A8B4213
:1003A00012D3FC22890112BA030A8B420CD38901B1
:1003B00092118B4208D3890192118B4204D3890197
:1003C0003AD0921100E08909C3098B4201D3CB01D5
:1003D000C01A524183098B4201D38B01C01A52418A
:1003E00043098B4201D34B01C01A524103098B428E
:1003F00001D30B01C01A5241C3088B4201D3CB0079
:10040000C01A524183088B4201D38B00C01A52415B
:10041000D9D243088B4201D34B00C01A5241411A32
:1004200000D20146634652415B10104601D3404260
:10043000002B00D54942704763465B1000D3404211
:1004400001B50020C046C04602BD704770477047E6
:10045000FFB504460D4681B024300090216888061F
:1004600004D51022E0699143216000E00120A842F8
:1004700001DD471B00E000270498A1697A191018D4
:10048000081AA0612078C00602D42046C046C046A3
:10049000002608E003986268A168805D9047206AA2
:1004A000401C761C206204988642F3DB2078C0064C
:1004B0000AD52046C046C04606E06268A1683020E2
:1004C0009047206A401C206238467F1E0028F4DCDA
:1004D00007E000986268A168405D9047206A401C70
:1004E000206228466D1E0028F3DC2046C046C04628
:1004F0002078000602D5022005B0F0BD0120FBE700
:1005000001694A1C02610878704700B58FB00291FA
:100510000021059105490193794403911146049006
:100520006846FFF759FE0FB000BD0000E5FFFFFF72
:100530000A681070521C0A60704701468008081A49
:1005400002091018020A1018020C1018C0088200C4
:1005500012185200891A01E0401C0A390A29FBD2FC
:100560007047754600F024F8AE46050069465346CC
:10057000C008C000854618B020B5FFF705FE60BC76
:1005800000274908B6460026C0C5C0C5C0C5C0C5BD
:10059000C0C5C0C5C0C5C0C5403D49008D467047F7
:1005A00010B50446C046C0462046FFF7DCFD10BD2E
:1005B000004870475002002001491820ABBEFEE7FA
:1005C00026000200704710B5846AA16D50221142C6
:1005D0000DD1A06D012149020843A065206801F0FA
:1005E00074FF00281BD0A07E002807D017E0A16D63
:1005F000C90624D5204600F004FA10BD2068016821
:1006000009070CD501F05DFF0146012000290AD041
:10061000A16D20221143A165E16D0143E1652046F2
:1006200000F0EAF910BD21684A680C239A434A6039
:10063000A16DFF22013291430143A165EFE7216DD6
:10064000496B884710BD10B5806A816D4022114307
:100650008165C16D04221143C16500F0D2F910BD5E
:1006600010B5806A00F0CCF910BD0000F8B5044662
:1006700000200090206801F020FF002845D120686C
:100680008168234A10261140002930D18168D54362
:100690002940491C81601F480068072189050840DE
:1006A00000020AD51D481C490068FFF721FE401CC6
:1006B00000E0401E00900028FBD1607E012824D07D
:1006C00000F0C4FD07461BE001F0F7FE002804D14E
:1006D000206881682940491C816000F0B7FDC01B7B
:1006E00002280DD920680068C043C00708D0A06D5B
:1006F0003043A065E06D01210843E0650846F8BD80
:1007000020680168C943C907DED10020F8BD000098
:100710001700008008270140400D03006000002002
:1007200010B5024800F0E4FB10BD0000F401002009
:1007300010B50446006C09498008800040186064C8
:10074000207814210838FFF7D3FD04498031A164D3
:10075000C106C90E01208840E06410BD00080240B7
:100760000179084B8906890E8A00D2180265054A6C
:100770004432491E42658A07920F012191408165EA
:1007800070470000FC080240F0B5846CC56C6560E1
:10079000046D002C02D0446D856D65600B4C65685E
:1007A000066C1C273E400127B7403D436560046846
:1007B00063608368102B036803D099600068C2608F
:1007C000F0BD9A600068C160F0BD0000000002400A
:1007D00072B6FEE7F8B50027064604464036009795
:1007E000307D0D4601280FD001203075206801F0C2
:1007F00068FE00280AD0A06D20210843A0650127CB
:10080000002030753846F8BD0220F8BD686802281F
:100810007ED001222169D207914202D0121D91425D
:1008200006D120682968826A4903490B0A436EE0B1
:10083000C206D20E0F20216E9040814328684303E8
:1008400002D0C3074BD102E04000C00E48E083074E
:1008500001D5012044E0430701D5022040E0030711
:1008600001D503203CE0C30601D5042038E083060F
:1008700001D5052034E0430601D5062030E003060B
:1008800001D507202CE0C30501D5082028E0830509
:1008900001D5092024E0430501D50A2020E0030505
:1008A00001D50B201CE0C30401D50C2018E0830403
:1008B00001D50D2014E0430401D50E2010E00304FF
:1008C00001D50F200CE0C30301D5102008E08303FD
:1008D00001D5112004E0400301D5122000E00020E2
:1008E0009040014321666968E2698808401C904293
:1008F00010D820682B68826A9C46C906C90E0F234F
:100900008B409A4363469B001B0F8B401A4300E0C9
:100910003BE082622168AB6828684A690002824332
:1009200018404001400902434A612868002800DB62
:1009300066E72B4A116807239B051940294B98420B
:1009400014D10B0212D4C0020143104601F0C5FDC0
:10095000264825490068FFF7CBFC0C21401C484382
:1009600000E0401E00900028FBD149E7204B984250
:1009700003D1CB0101D4800205E01E4B9842D7D1B0
:100980004802D5D45802014325E001212069C90756
:10099000884202D0091D884206D120682968826AEF
:1009A0004903490B8A43826228680028C0DA0C4A4E
:1009B000116807239B0519400A4B984201D1C002D8
:1009C00008E00B4B984201D1800203E0094B9842AA
:1009D000AED140028143104601F07FFD10E70000D8
:1009E00008270140001000B0400D03006000002007
:1009F000004000B8002000B410B500F0B7F910BDF9
:100A000070477047FEB50027044601973E4602979F
:100A10000097002805D02546A06D2035002802D07B
:100A200007E00120FEBD204600F0FCF8E6655420FA
:100A3000065520688168C900C90F12D18168724AC1
:100A40001140012212071143816071486F4900680B
:100A5000FFF74EFC4000801C00E0401E0090002884
:100A6000FBD120688168C900C90F08D1A16D10228F
:100A70001143A165E16D01221143E165174601F0C3
:100A800020FDA16DC90601D4002804D0A06D10215D
:100A90000843A065B4E0A06DFF2101318843022125
:100AA0000843A065206801F008FD00286DD1217E73
:100AB000A06889030843617ECA03A17E4B031A43E1
:100AC0001043226B002A01D0012212031043E26876
:100AD00010432269002A02DA5200520801E0012282
:100AE000520510432A7B52001043019A10432A7882
:100AF000012A09D1002922D0A16D20221143A1652C
:100B0000E16D01221143E165616A002906D0FF23EE
:100B1000C1331940A26A0143104608432168CA68DC
:100B20003C4B1A400243CA606168029A890F8907E8
:100B3000E06C0A4310432A7F012A04D00CE0012113
:100B400009040843E0E7636C226C491C1A43A36C58
:100B50000B4311461943084321680A692E4B1A407A
:100B600002430A6103216068890788420DD0590752
:100B700088420AD04900884207D0284A91680F234A
:100B80009B0499431840014391600021626B2068E7
:100B900001F0AAFC2249A26B206801F0A5FC0F20FD
:100BA0002169C04300291CD00122520591420AD17B
:100BB00021688A6A227F9200121FD206D20E9040CC
:100BC000226E1043886220684069616B4007400FC5
:100BD00088420BD1E665A06D80088000401CA065AE
:100BE0000FE021688A6A02438A62ECE7A06D022165
:100BF000884310210843A065E06D01210843E065AA
:100C000001273846FEBD0000E8FFFF7F400D0300CE
:100C1000600000200102FEFF02FCFF1F00270140D0
:100C200004FFFF0770B586B0054614216846FFF73C
:100C30005DFB1D492868884234D11C4802680121A7
:100C400009050A43026000680840059017484038CB
:100C5000426B01210A434263406B009108400590BA
:100C6000032001900026052069460296000700F047
:100C700033FA104C0E482060A6600520E6606060E4
:100C800080202061400060618000A06120202662F9
:100C9000E061204600F088F9002801D0FFF798FDB8
:100CA0002C65A56206B070BD0024014040100240D2
:100CB00008000240F4010020F7B50446006801F086
:100CC00000FC002845D125464035287D012840D02C
:100CD00001272F752068C1681F4EC9070CD101F08C
:100CE000ECFB002804D0206881683140891C8160B9
:100CF0002068C1683943C1602046FFF7B7FC00286F
:100D000026D1A06D15490840FF2101310843A06597
:100D10000020E065226D1249D162226D11491163F4
:100D2000226D1149516322681C21116028752068C9
:100D300041681022114341602168206D4031029BBF
:100D4000019A00F083F921688A683240121D8A6096
:100D5000FEBD0220FEBD0000E8FFFF7FFEF1FFFFA9
:100D6000C7050008610600084706000870B504467C
:100D7000006801F0A6FB002802D00221084670BDE1
:100D800025464035287D01280AD0012028752046B7
:100D9000FFF76CFC01460020002903D02875EDE721
:100DA000022070BDA26D144B1A40FF2301331A4379
:100DB000A265E06523681C221A60287520684368D4
:100DC00093434360606908282068426801D0042387
:100DD00000E008231A434260206B002804D12068F9
:100DE000426810231A43426020688268034B1A400D
:100DF000121D8260C2E70000FEF1FFFFE8FFFF7FE7
:100E0000F0B5002808D0014620314A79022A05D0E1
:100E10000422C263002008710120F0BD026813683B
:100E20000E24A3431360426C1468FF2301339C43D8
:100E30001460026814686408640014600C4A556801
:100E4000066C1C24264001242746B7403D435560CC
:100E5000826CC56C5560026D002A05D015689D43F3
:100E60001560826D406D42604C7100200871F0BDCC
:100E700000000240F8B500240246203251790229D0
:100E800003D00421C16301242DE001680B680E2505
:100E9000AB430B6001680B685B085B000B60416C47
:100EA0000B68FF250135AB430B6010494D68066C9C
:100EB0001C231E4001231F46B7403D434D60816CFB
:100EC000C56C4D60016D002906D00E681D02AE4351
:100ED0000E60416D856D4D60537100211171816B04
:100EE000002900D088472046F8BD000000000240DD
:100EF000F0B42C490C6802681368056C1C273D404F
:100F00000426AE40264211D05E070FD513689B061B
:100F100003D4146804239C4314604B68046C0422BB
:100F20003C40A24013434B60016B1CE00227AF40E2
:100F3000064627402036002F19D09F0717D5136883
:100F40009B0605D413680A24A3431360012272711F
:100F50004B68046C1C2214400222A24013434B60D5
:100F600000213171C16A00291AD0F0BC0847082756
:100F7000AF40274214D01B0712D513680E24A34399
:100F800013604B68046C1C22144001221546A540D6
:100F90002B434B60C263727100213171416BE2E7F8
:100FA000F0BC70470000024070B504003FD02548F7
:100FB000256814212818FFF79BF98000206402207F
:100FC00026462036707128681F4908402860E1686D
:100FD000A06862690843216911430843A169084375
:100FE000E1690843216A084321680A6810430860E0
:100FF0002046FFF79DFB0121A06889030025884258
:1010000000D165602079616C8006800E0860A06C5C
:10101000E16C41606068401E03280AD82046FFF753
:101020009FFB206D0560606DA16D416004E00120B3
:1010300070BD25656565A565E56301207071357135
:10104000002070BDF8FFFDBF0F80FFFFF8B504461C
:101050008C4620300179002501290BD0012606712C
:1010600041790027012907D08021E163077101251B
:101070002846F8BD0220F8BD02214171E7632068CF
:10108000016849084900016061462046FFF77CFB82
:10109000206B00282068016801D00E2205E00422A0
:1010A00091430160206801680A2211430160606C6D
:1010B0000168CA03074902D502680A430260206D2D
:1010C000002802D002680A430260206801683143A8
:1010D0000160CDE700010000F0B5002303249AE091
:1010E0002A4601259D402A407ED00E79B607B60FCC
:1010F000012E01D0022E16D186682746B4465E0026
:10110000B646B7406646BE43B446CF687646B7405B
:101110006646374387604668AE430D79ED06ED0FAE
:101120009D40354345600D79ED43AD0708D0C56856
:101130005F002646BE40B5438E68BE402E43C66063
:101140000D79AD07AD0F022D0ED1DD08AD002D18C4
:10115000AC462D6A5E07F60E0F27B740BD430F69F8
:10116000B7402F4365462F6205685F002646BE40A4
:10117000B5430E79B607B60FBE402E4306604D68E4
:10118000AD03AD0F46D09E08264DB6007519AC468E
:101190002D6E9E07F60E0F27B740BD4305273F076C
:1011A000B84201D100270FE01F4FB84201D10127FB
:1011B0000AE01E4FB84201D1022705E01C4FB84299
:1011C00001D1032700E00527B7402F43154D6646A0
:1011D00037662D684E689543F60200D51543114FCA
:1011E0003D607D68954300E014E04E68B60200D58E
:1011F00015437D600B4D80356E684F689643BF0385
:1012000000D516436E602E684F689643FF0300D5E5
:1012100016432E605B1C0A681546DA4000D05FE773
:10122000F0BD00000018024000040050000800500B
:10123000000C00500069084000D001207047002ACF
:1012400001D0816170478162704700000148806869
:101250007047000054000020024881680278891815
:10126000816070475400002010B5084800240168D0
:10127000821511430160032000F00AF8002801D014
:10128000012401E000F028F8204610BD00200240B3
:1012900070B50F4E002431780546002915D07D2009
:1012A000C000FFF725F801460A480068FFF720F85C
:1012B00000F050FB002808D1042D06D20022294658
:1012C000401E00F02BF8756000E00124204670BD40
:1012D000540000206000002008B509480168012280
:1012E0001143016000681040009005484038C26B0F
:1012F00001040A43C263C06B0840009008BD0000AF
:1013000040100240002805DBC106C90E01208840BC
:10131000014908607047000000E100E010B501F0ED
:1013200003FF10BD10B50F4C2168032252029143F8
:1013300001432160C11FFF39FA390ED10A48062145
:10134000006848430949FEF7D3FF401C02E000282B
:1013500005D0401E61694905F9D4002010BD032065
:1013600010BD0000007000406000002040420F00EF
:10137000F8B50F46060043D04D4D28684007400F92
:10138000B84213D22868C008C00038432860FFF76D
:101390005DFF044605E0FFF759FF011B4548814208
:1013A00061D828684007400FB842F4D13068424CF9
:1013B00081070DD5400704D5A0680721090308431C
:1013C000A060A0680F2109028843B1680843A060AB
:1013D0003078C00732D0706801280AD002280BD0BC
:1013E00000280FD03449403103280ED0C96989073D
:1013F00004E02168890301E021688901002906DBF6
:101400000120F8BD21684905F8E7096AEFE7A168FE
:10141000C908C9000143A160FFF718FF009006E06A
:10142000FFF714FF0099411A224881421BD8A06897
:10143000382108407168C9008842F1D12868400706
:10144000400FB84217D91A480168C908C900394382
:101450000160FFF7FBFE054607E0FFF7F7FE411BC3
:101460001448814201D90320F8BD114800684007A3
:10147000400FB842F1D13078400706D5A068072167
:1014800009038843F1680843A06000F031F8A168BF
:101490003C2289091140094A515CC906C90EC8405D
:1014A0000749086007480068FFF7F2FEF8BD000032
:1014B0000020024088130000001002406836000837
:1014C000600000205800002006480749006889682D
:1014D000064A4904490F8900515CC906C90EC84033
:1014E000704700006000002000100240A83600088D
:1014F00010B5204CA068204A8006400F16D0A06886
:101500008006410F501001290FD0A1688906490FAC
:10151000022912D0A0688006400F042823D0A068BA
:101520008006400F032821D0002010BD2068012133
:101530008004400F8140104612E0E1688B07E168AB
:101540009B0F4906490F491C032B00D01046FEF79C
:10155000CFFEE1684904490E4843E168490F491C40
:10156000FEF7C6FE10BD0120C00310BD7D200002A5
:1015700010BD0000001002400024F400F8B5040083
:101580007ED020783827C007E94D002846D0A868CB
:10159000E96838408907890F102802D008280BD045
:1015A00001E0032908D001206268000482420AD1C8
:1015B00029680143296015E0286880032ED56068FA
:1015C0000028DDD02AE0052301211B0489049A426A
:1015D0002A6802D10A432A60EAE782432A6028681F
:1015E00088432860606800280CD0FFF72FFE06466D
:1015F00004E0FFF72BFE801B642873D82868800363
:10160000F7D50BE0FFF722FE064604E0FFF71EFECB
:10161000801B6428F1D828688003F7D420788007DD
:1016200069D5A868E96838408A070721920FC9027E
:10163000102802D0002813D001E0022A10D0E06860
:10164000002846D028688843216908432860286814
:10165000FF21013108432860FFF7F8FD06462CE022
:101660002A68520502D5E268002A89D06A687F2379
:101670001B029A4363691B021A436A60002800E058
:101680008DE00ED1286888432169084328602868C6
:1016900001218004400F8140A648FEF729FEA6499B
:1016A0000860A6480068FFF7F3FD002877D122E024
:1016B000FFF7CCFD801B02289FD828684005F7D58E
:1016C00068687F21090288436169090208436860EC
:1016D00011E02968FF20013081432960FFF7B6FD42
:1016E000064605E098E0FFF7B1FD801B022884D88C
:1016F00028684005F7D42078914E00072ED5A868B9
:101700008006400F03280AD0A0690028306A16D04E
:10171000012108433062FFF799FD07460BE0306A6C
:1017200080071BD5A06900289FD017E0FFF78EFD2A
:10173000C01B022870D8306A8007F7D50EE0400839
:1017400040003062FFF782FD074604E0FFF77EFDB0
:10175000C01B022860D8306A8007F7D42078400781
:101760006CD5A86800278006400F042818D0E86BC5
:10177000C00008D4E96B012000070143E963E96B6D
:101780000140012700916F480168C90519D401681B
:10179000821511430160FFF759FD00900DE083E0D1
:1017A000F06980074AD5A06800287DD046E0FFF7A1
:1017B0004DFD0099401A02282ED862480068C005E5
:1017C000F5D5A168012910D004200529F16911D0AF
:1017D00049084900F161F1698143F161A06800287D
:1017E00016D0FFF733FD00900EE0F06901210843A9
:1017F000F061F3E70143F161F7E7FFF727FD009997
:10180000411A5148814265D8F0698007F5D50EE04C
:10181000FFF71CFD009007E05CE0FFF717FD009963
:10182000411A4948814255D8F0698007F5D4002F04
:1018300004D0E96B012000078143E963E0690028D7
:1018400073D0A9688906490F02294DD001263606B2
:101850000228286805D0B0432860FFF7F7FC04464B
:101860003AE0B0432860FFF7F1FC074604E0FFF7D9
:10187000EDFCC01B02282DD828688001F7D4616ACE
:10188000206AA26A0843E16A120211430843216BED
:101890000843E9682D4A11400843E860286830434E
:1018A0002860E868012100E03DE009070843E8609E
:1018B000FFF7CCFC044604E0FFF7C8FC001B02283D
:1018C00008D828688001F7D52FE0FFF7BFFC001B80
:1018D000022801D90320F8BD28688001F5D4E86802
:1018E0001B490840E86020E00128F4D0E868226A3B
:1018F0008107890F914216D17021626A014091429D
:1019000011D17F21A26A09020140120291420AD13B
:101910001F214904E26A0140914204D1400F216B2A
:101920004007884201D00120F8BD0020F8BD00002A
:10193000001002400024F400600000205800002045
:101940004010024000700040881300008C80C11FCE
:10195000FCFFFEEF094910B5401E884201D9012065
:1019600010BD074C60610321081F01F0DDFB002062
:10197000A06107202061002010BD0000FFFFFF00D4
:1019800000E000E07047704770470000F0B5034684
:1019900020331A7F012A24D001221A7702225A7793
:1019A00004686268A568104FBC4205D116460F2234
:1019B000120596434A6832437026B2430E681643B6
:1019C00066600068B84202D0084A904204D1802282
:1019D0008968954329438160012058770020187752
:1019E000F0BD0220F0BD0000002C014000040040CA
:1019F00070B5040005D025462035687F002802D048
:101A000006E0012070BD00202877204600F016F87F
:101A100002206877211D206800F040FE012240343A
:101A20002272AA77EA7722706270A270E270227145
:101A30006271A271E2716A77002070BD08B500681A
:101A4000094988420FD109480268C1140A4302605B
:101A5000006800220840009011460D20FFF75EFC50
:101A60000D20FFF74FFC08BD002C01404010024044
:101A7000014620314A7F012A01D00120704702220D
:101A80004A770168CB6801221343CB60006809499B
:101A9000884202D00849884207D18168074B194023
:101AA000062905D0DB1F994202D00168114301606D
:101AB00000207047002C0140000400400700010096
:101AC000F8B5054604462035287F0026012817D0A2
:101AD00001272F7702206877226890682F4B1840E3
:101AE000FF231B02984390600868502838D00EDC12
:101AF00020284FD006DC00284CD010281ED149E009
:101B00000220F8BD302845D0402817D13AE060289F
:101B10002ED0702818D001221203801A0FD09042C4
:101B20000CD1CB684A688968206800F0F3FD206812
:101B30008168012292031143816000E001266F77E2
:101B4000002028773046F8BDCB684A68896820684D
:101B500000F0E0FD21688868772210438860EEE796
:101B6000CA684968206800F0EBFD5021206806E053
:101B7000CA684968206800F0F4FD6021206800F020
:101B8000D5FDDCE7CA684968206800F0D9FD40212E
:101B90002068F4E7226801461046F0E788FFCEFF90
:101BA0007047000070B50446006801690025C9430C
:101BB0008907002915DBC168C943890711D4E91ECB
:101BC000016101202077206880698007204602D0CB
:101BD000FFF7E6FF04E000F0A7F8204600F0A5F8C4
:101BE000257720680169C943490717D4C168C943EB
:101BF000490713D40421C9430161022020772068DA
:101C000080698005800F204602D0FFF7C9FF04E0FD
:101C100000F08AF8204600F088F8257720680169EE
:101C2000C943090716D4C168C943090712D408215A
:101C3000C9430161042020772068C06980072046DD
:101C400002D0FFF7ADFF04E000F06EF8204600F090
:101C50006CF8257720680169C943C90617D4C168A3
:101C6000C943C90613D41021C94301610820207754
:101C70002068C0698005800F204602D0FFF790FFE2
:101C800004E000F051F8204600F04FF82577206876
:101C90000169C943C90708D1C168C943C90704D14B
:101CA000891E0161204600F041F820680169C9439E
:101CB000090609D4C168C943090605D48021C9436E
:101CC00001612046FFF75FFE20680169C943C9052D
:101CD00008D4C168C943090604D4124901612046E9
:101CE000FFF750FE20680169C943490609D4C1685D
:101CF000C943490605D44021C9430161204600F08B
:101D00001BF920680169C943890609D4C168C94320
:101D1000890605D42021C94301612046FFF734FE1E
:101D200070BD0000FFFEFFFF7047704770B580492F
:101D3000884271D17F4C01262078A17A02468A43DD
:101D4000E17A00258A43002A03D0A6726670A56155
:101D50006561002803D1002900D0A572E5720A212F
:101D60006069FEF7CFFAA07A00291CD0002802D0C3
:101D70006069401C6061207905263607002861D023
:101D8000E06A00283ADD217B002937D0616C81426E
:101D90001ADA207A002804D0012220213046FFF7E9
:101DA0004EFA01221DE00028E5D0E07A0028DFD1BC
:101DB00065616670A069401CA0610328D8DDE672E9
:101DC000A572A5616570D6E7226B801888420CDD8C
:101DD000207A002804D0002220213046FFF72FFA75
:101DE000002210213046FFF72AFA606C401C606424
:101DF000226BE16A8918814200DC6564A06B0028CF
:101E000020DD617B00291DD0A16C814205DA207A9A
:101E100000280ED1012208E088E0E26B8018884299
:101E200007DD207A002804D1002220213046FFF768
:101E300006FAA06C401CA064E26BA16B8918814279
:101E400000DCA5646079002870D0216C606B0843C9
:101E50006CD0E06A002835DD217B002932D1616C2D
:101E6000814209DA207A002804D00122202130465C
:101E7000FFF7E5F901220CE0226B801888420CDDA7
:101E8000207A002804D0002220213046FFF7D7F91D
:101E9000002210213046FFF7D2F9606C401C6064CC
:101EA000226BE16A8918814203DC6564E06C401CA6
:101EB000E064606BE16C401E814203DDE564E56235
:101EC00025636563A06B00282BDD617B002928D189
:101ED000A16C814204DA207A00280DD1012207E0AA
:101EE000E26B8018884207DD207A002804D10022A6
:101EF00020213046FFF7A3F9A06C401CA064E26BE0
:101F0000A16B8918814203DCA564206D401C20650B
:101F1000206C216D401E814203DD2565A563E563CC
:101F20002564E16AA06B084300D1657170BD0000B3
:101F30001401002000000020704770477047704770
:101F400070477047F8B503680446D96918689A68FD
:101F5000B44D0E462E4025468035002E75D0B24E2B
:101F6000B24F1640074037436ED0CF0706D0C705A3
:101F700004D501271F622B693B432B618B0708D5D2
:101F8000D30706D0276802233B622B6904273B4313
:101F90002B614B0708D5D30706D0276804233B6283
:101FA0002B6902273B432B610B0709D520230340F4
:101FB000334305D02668082333622E691E432E6101
:101FC0000B0509D5430107D501232668DB023362DF
:101FD0002B69202633432B612B69002B42D08906C5
:101FE0000AD520210840C9050A40104304D0616F7A
:101FF000002901D020468847286921688968490658
:1020000002D42821084232D0204600F05FFC21682B
:102010008868400627D5EFF31080012282F31088EC
:102020008B68402293438B6080F3108828680028D7
:1020300019D07F4981632868FEF71CFF002811D062
:102040002868816B0DE000E017E08E0615D50127AA
:1020500020263F07064017403E430ED0616FB5E093
:1020600020468847F8BD2046FFF76BFFF8BD2046A5
:10207000FFF767FF00202861F8BDE66E012E7DD1D5
:10208000CE067BD5C60679D510221A6223689868D9
:10209000264640064036002849DA29680868406824
:1020A0000004000CE8D0B78B8742E5D9F0830868BC
:1020B0000068800634D4EFF31080012181F310888A
:1020C00019681701B943196080F31088EFF3108085
:1020D000012181F3108821688B685B085B008B60AD
:1020E00080F31088EFF31080012181F310882168BC
:1020F0008B684027BB438B6080F310882020E8600A
:102100000020E066EFF31080012181F31088216840
:102110000B6893430B6080F310882868FEF770FE0D
:1021200002202067B08BF18B401A81B235E0B08B72
:10213000F18B401A81B2F08B00289DD000299BD0F2
:10214000EFF31080012686F310881E68FF272137E1
:10215000BE431E6080F31088EFF31080012383F3E9
:10216000108823689E68304FFF433E409E6080F396
:1021700010882020E8600020E06600E011E0606741
:10218000EFF31080012383F3108823681D689543C3
:102190001D6080F31088022020672046FFF7CDFEE7
:1021A000F8BDCE0208D5560206D5012000051862FA
:1021B0002046FFF7C5FEF8BD0E060BD50127802689
:1021C000FF0506403A40164304D0A16F002900D015
:1021D00046E7F8BD4A0614D5420612D52046EFF36D
:1021E0001081012282F310881A684024A2431A60E9
:1021F00081F310882021A9600021816700F05BF93C
:10220000F8BD0A0205D5420003D52046FFF797FE28
:10221000F8BDC901FCD50028FADA2046FFF78EFE8A
:10222000F8BD00000F0800000100001020010004AC
:10223000B928000870B5040005D025468035A86887
:10224000002802D006E0012070BD00202871204641
:1022500000F026F82420A860206801684908490099
:102260000160204600F0A4FD0128EDD0A06A0028FE
:1022700002D0204600F088FA206841680922D20284
:1022800091434160206881682A22914381602068DF
:102290000168012211430160204600F0DBFA70BDA5
:1022A00010B586B0044614216846FEF71FF815499C
:1022B0002068884224D11448C26B012149040A4392
:1022C000C263C26B0A400592426B01210A4342631A
:1022D000406B0491084005900C2000900220019072
:1022E000002002900390052069460007FEF7F4FEE7
:1022F000002211461C20FFF711F81C20FFF702F8FE
:1023000006B010BD004400400010024070B58C23A0
:102310001B58202B01D0022070BD00290BD0002AB1
:1023200009D0012483682403A34206D10369002B4A
:1023300003D1CB0701D0012070BD0023C366046820
:1023400063681B020BD5EFF31083012585F310881A
:1023500025680126B6063543256083F3108800F012
:10236000DBFD70BDF8B51F49884239D11E491D4CAF
:102370008B7B01270022EC3CAA2B09D1CF704A624B
:1023800010468A628500401C62510F28FADB886281
:10239000CD78002D06D0486A0F2803DA8600A351B5
:1023A000401C486218466138192801D8203B8B73BD
:1023B000887B0D280AD00A280CD0002D0AD1CA69C2
:1023C0000B6A5043C018521C086202E0002D01D174
:1023D0008F70CA61044901220E310248FFF796FF4F
:1023E000F8BD00006001002000000020FFB5074696
:1023F00004468037B86883B00D46202802D00220FA
:1024000007B0F0BD002D0CD00598002809D00120A0
:10241000A1680003814206D12069002803D1E807A2
:1024200001D00120ECE7002038612120B860FEF7E0
:102430000DFF0190264640360598B0820598F0823F
:102440000120A1680003814202D12069002802D046
:102450000295002515E00020029012E00022802164
:10246000204600F0EFFD002818D10298002817D070
:102470002168007888620298401C0290F08A401E11
:10248000F082F08A019B002806980090E6D1002295
:102490004021204600F0D6FD002808D00320AFE7F9
:1024A00028882168C005C00D8862AD1CE6E72020A1
:1024B000B8600020A4E77047FEE78068C007C00F3F
:1024C000704780684007C00F7047C0680005800FE4
:1024D00001D00020704701207047026807239B0548
:1024E0009A430A430260704710B5436904242140AF
:1024F00007248C40A3438A401343436110BD00006E
:102500003EB50024184800940194164902940160D5
:102510008460C4600905046141600421416104765E
:1025200044768476012501462031C5610C704462F1
:1025300084620C7304630222846342630C77C46474
:10254000FEF760FA002801D072B6FEE701946946F2
:10255000054800950294FEF73DF9002801D072B6B7
:10256000FEE73EBD00240140B000002010B588B059
:10257000002405940694184803940494009401944C
:102580001449029401601549846041600461144952
:102590004461C16080218161FFF72AFA002801D0DF
:1025A00072B6FEE701200003039003A90A48FFF773
:1025B00087FA002801D072B6FEE7009401946946BC
:1025C00005480294FFF7E2F9002801D072B6FEE751
:1025D00008B010BD002C014014010020E7030000EA
:1025E0003F06000010B50D480B4901604B21C901A1
:1025F000416000218160C16001618161C16101624E
:102600000C22416242618162FFF714FE002801D072
:1026100072B6FEE710BD00000044004060010020DB
:10262000FEE77047704710B5FEF716FE10BD10B5F7
:1026300092B034216846FDF759FE002401200D9424
:102640000E940F9440021094FEF76CFE022000904E
:10265000C001039040200590049407946846FEF75B
:102660008DFF002801D072B6FEE707200D900E9472
:102670000F94002110940DA8FEF77AFE002801D0D7
:1026800072B6FEE712B010BD7047000010B50248E8
:10269000FFF788FA10BD00001401002070B5026831
:1026A000174B184E984201D0B04203D17024A24378
:1026B0004C682243144C154D984208D0B04206D0C5
:1026C000134EB04203D0A04201D0A84204D1032649
:1026D0003602B243CE6832438026B2434E6932435B
:1026E00002608A68C2620A688262984203D0A0428D
:1026F00001D0A84201D1096901630121416170BD86
:10270000002C01400004004000440140004801400A
:102710000020004030B58468FF252D021B021343C2
:10272000AC430B432343836030BD00008268034BFE
:102730001A400A4307210A43826070478FFFCFFF88
:1027400030B5036A046A6408640004628469F02591
:10275000AC43120122430A24A3430B438261036268
:1027600030BD30B5036A1024A34303628469036A51
:102770000F252D031203AC432243A024A3430901D8
:1027800019438261016230BD10B5018DC90707D0C0
:1027900001684A6801235B049A43C36A1A434A608A
:1027A000018D890707D501684A6801231B049A43F4
:1027B000036B1A434A60018D490707D501684A68CF
:1027C00001239B049A43436B1A434A60018D090716
:1027D00007D501684A680123DB039A43836B1A43D8
:1027E0004A60018DC90607D50268916801231B0361
:1027F0009943C36B19439160018D890607D5016820
:102800008A6801235B039A43036C1A438A60018D33
:10281000490612D503685A6801210905446C8A43A8
:1028200022435A60426C8A4207D1026851680323EE
:102830005B059943836C19435160018D090607D5E7
:1028400001684A680123DB04C06C9A4302434A6072
:1028500010BD0000FEB506460025803604463561F1
:10286000FEF7F4FC019020680068124F000709D5BC
:1028700001210097002249052046019B00F0E2FB60
:1028800000280DD12068006840070BD50121009772
:10289000002289052046019B00F0D4FB002801D0CE
:1028A0000320FEBD2020B060F060E566256735712D
:1028B0000020FEBDFFFFFF0110B5806A0022014627
:1028C0004031CA83CA82FFF73CFB10BD10B5EFF35D
:1028D0001081012282F3108802681368FF242134DA
:1028E000A343136081F31088EFF31081012282F378
:1028F0001088026893680D4C2340936081F3108820
:10290000C16E01290BD1EFF31081012282F31088EF
:10291000026813681024A343136081F310882022F7
:102920008C210A500021C166416710BDFEFFFFEFF8
:1029300070B501464031034680330C8CDD68026877
:10294000222D04D0906908210843906170BD526A1D
:10295000856D22402A80826D921C8265CA8B521E30
:10296000CA83CA8B002AF1D1EFF31082012484F3C9
:10297000108804682568FF262136B543256082F358
:102980001088EFF31082012484F310880468A5688E
:102990006D086D00A56082F310882022DA600022A5
:1029A00042670267C36E012B02D0FFF7DBFC70BDEC
:1029B000C266EFF31082012383F310880468256850
:1029C00010239D43256082F310880268D469E44394
:1029D000E40600D41362898BFFF7AFFA70BD0000E4
:1029E000F0B505460446403589B0288C0290206831
:1029F000C669016806918168049121468031009181
:102A0000C968222905D0816908221143816109B072
:102A1000F0BD2F8D69E02068406A029AA16D1040D8
:102A20000880A06D801CA065E88B401EE8832068AC
:102A3000C669710731D0F10709D00699C90506D5D5
:102A40000121016200980069084300990861B007FC
:102A50000BD50498C00708D02168022008620098AE
:102A60000069042108430099086170070BD5049898
:102A7000C00708D02168042008620098006902217C
:102A800008430099086100980069002805D0204695
:102A9000FFF757FA009900200861E88B002824D13D
:102AA000EFF31080012181F3108821680A68FF2369
:102AB00001339A430A6080F31088EFF310800121FC
:102AC00081F3108821688A68274B1A408A6080F356
:102AD000108800992020C860002060672067E16EA0
:102AE000012928D02046FFF73DFC002F01D0B00679
:102AF00091D4E88B00288AD0298D814287D9EFF3C1
:102B00001080012181F3108821688A6801231B0746
:102B10009A438A6080F3108814486067EFF310804E
:102B2000012181F3108821680A6820231A430A6072
:102B300080F310886BE7E066EFF31080012181F3EA
:102B400010882268136810218B43136080F310886B
:102B50002068C269D243D20600D40162A98B204604
:102B6000FFF7EBF9C1E70000FEFFFFEF3129000896
:102B700070B501464031034680330C8CDD68026835
:102B8000222D04D0906908210843906170BD526ADB
:102B90002240846D2270826D521C8265CA8B521E47
:102BA000CA83CA8B002AF1D1EFF31082012484F387
:102BB000108804682568FF262136B543256082F316
:102BC0001088EFF31082012484F310880468A5684C
:102BD0006D086D00A56082F310882022DA60002263
:102BE00042670267C36E012B02D0FFF7BBFB70BDCB
:102BF000C266EFF31082012383F31088046825680E
:102C000010239D43256082F310880268D469E44351
:102C1000E40600D41362898BFFF78FF970BD0000C2
:102C2000F0B505460446403589B0288C01902168EE
:102C3000CE6908680690886804902046803002902B
:102C4000C068222805D0886908221043886109B02D
:102C5000F0BD2F8D69E02068406A01990840A16DA0
:102C60000870A06D401CA065E88B401EE8832068BA
:102C7000C669710731D0F10709D00699C90506D593
:102C80000121016202980069084302990861B007B6
:102C90000BD50498C00708D021680220086202986A
:102CA0000069042108430299086170070BD5049854
:102CB000C00708D021680420086202980069022138
:102CC00008430299086102980069002805D020464F
:102CD000FFF737F9029900200861E88B002824D11A
:102CE000EFF31080012181F3108821680A68FF2327
:102CF00001339A430A6080F31088EFF310800121BA
:102D000081F3108821688A68274B1A408A6080F313
:102D1000108802992020C860002060672067E16E5B
:102D2000012928D02046FFF71DFB002F01D0B00657
:102D300091D4E88B00288AD0298D814287D9EFF37E
:102D40001080012181F3108821688A6801231B0704
:102D50009A438A6080F3108814486067EFF310800C
:102D6000012181F3108821680A6820231A430A6030
:102D700080F310886BE7E066EFF31080012181F3A8
:102D800010882268136810218B43136080F3108829
:102D90002068C269D243D20600D40162A98B2046C2
:102DA000FFF7CBF8C1E70000FEFFFFEF712B000833
:102DB000F8B5044680682169E26908436169002525
:102DC00011432268084311684B4B194001431160BD
:102DD00020684168032212039143E2681143416075
:102DE000A169206A084321688A68444B1A4002435B
:102DF0008A602068C16A626A090909011143C162D7
:102E00003F492068884211D13E4840698007800FC1
:102E10000FD0012806D0022802D003280BD103E0EE
:102E2000022109E0042107E0082105E03649884233
:102E300001D1002100E010210120E369C003334AE1
:102E4000334E344F834227D1002906D0022907D0C0
:102E5000042907D008293FD108E0FEF735FB03E03D
:102E6000104603E0FEF744FB00283AD0616A4900AF
:102E7000715AFDF73DFA616840004A088018FDF775
:102E800037FA01461039B94226D82249491C014077
:102E90000007400F084322E0002906D0022907D08E
:102EA000042907D0082917D108E0FEF70DFB03E03D
:102EB000104603E0FEF71CFB002812D0616A4900AF
:102EC000715AFDF715FA61684A088018FDF710FA83
:102ED00001461039B94201D9012502E080B22168CA
:102EE000C86020460121403041850185002060678F
:102EF000A0672846F8BD0000F369FFCFFFF4FF117B
:102F00000038014040100240004400400024F4001A
:102F100050360008EFFF0000F0B5816501464031F2
:102F20008A83CA8300254567012483682403FF261A
:102F3000A34204D10369002B13D13D4B0AE07F2744
:102F4000002B09D001263607B3420CD10369002BB0
:102F500005D03F230B8407E00369002B01D00F84C9
:102F600002E00E8400E00D84034680331D612225BB
:102F7000DD60EFF31083012585F310880568AE68E6
:102F800001273E43AE6083F31088436E7D07AB425A
:102F900029D1098D914226D88168A14202D10169C7
:102FA00000291DD023494167016900290CD0EFF3A6
:102FB0001081012282F3108802681368FF24013413
:102FC0002343136081F31088EFF31081012282F311
:102FD00010880068826801231B071A43826023E07F
:102FE00015494167F0E78168A14202D101690029D2
:102FF0000ED012494167016900290BD0EFF310810F
:10300000012282F3108800680268FF23213309E05F
:103010000B494167EFF31081012282F310880068A9
:10302000026820231A43026081F310880020F0BD5B
:10303000FF010000212C0008E1290008712B000885
:1030400031290008FFB581B0054617460446803592
:103050000A9E54E0701C52D0FEF7F8F80499401A0A
:10306000B0422FD8002E2DD020680168490746D5E0
:10307000C069C043000542D401202168C002086233
:10308000EFF31080012181F3108821680B68FF2283
:10309000A13293430B6080F31088EFF3108001217D
:1030A00081F3108821688A68520852008A6080F390
:1030B00010882020A860E860286100202871032083
:1030C00005B0F0BDEFF31080012181F31088216875
:1030D0000A68FF23A1339A430A6080F31088EFF354
:1030E0001080012181F3108821688A6852085200FB
:1030F0008A6080F310882020A860E860DDE72068FF
:10310000C1690298884304D00020B842A2D00020B0
:10311000D6E70120F9E7000010B50248FEF712FFDC
:1031200010BD0000600100208307FF22DB0E9A40E3
:103130008907090E9940002808DB830809489B008D
:103140001B18186890430843186070470007000F69
:103150000838830804489B001B18D869904308432B
:10316000D861704700E400E000ED00E086B0FEF7B3
:103170007BF8FFF75CFA14216846FDF7B7F8FA4CC4
:10318000606B012738436063606B05263840360763
:103190000590002230213046FEF751F8022000252C
:1031A00000900195694602953046FDF795FF302065
:1031B000009002956946019703953046FDF78CFF14
:1031C000A06B3843A063A06B0022384000901146EA
:1031D0000920FEF7A3F80920FEF794F8FFF790F90D
:1031E000FFF700FAFFF7C2F9E048FEF741FCDF48BD
:1031F0000122DF496438FDF75FFDDD49DB4801222C
:10320000891E4C30FFF782F8D84ED94CA03E103CB6
:10321000052002210007FEF70DF800281CD000232E
:103220002370A078002861D0D249206A884215D145
:10323000CF48D1A10288CD48B038FCF7B7FFCB49C1
:1032400082B2B039FF230846F533FC30FFF7CEF8E1
:10325000E7726570A57247E00123E1E703214902A7
:10326000884203D125716571012205E0C649884273
:1032700004D1257165712EE010210FE0C2491C397F
:10328000884203D125716571012206E0BB21C90086
:10329000884216D125716571002220210520000782
:1032A000FDF7CDFFB148B9A1B038FCF77FFFAF49BA
:1032B00082B2B039FF230846F533FC30FFF796F8A9
:1032C00012E0B449884208D125716571002220219D
:1032D0000007FDF7B4FF0022CEE74B2804D1A5720A
:1032E0006561A561E77265702562A5706078E17A15
:1032F00088430ED09D48A8A1B038FCF757FF9B49E2
:1033000082B2B039FF230846F533FC30FFF76EF880
:1033100065703068AA2800D07AE77068BB28FBD1B6
:10332000706BEE28F8D1B06BCC28F5D1606A0F280D
:10333000F2D1E570B06801078A0F032A06D0890F21
:1033400008D0010717D5A571E77118E0A571E571DF
:10335000277217E0A571E5712572052067720022BA
:1033600020210007FDF76BFF052000221021000738
:10337000FDF765FF06E0400704D5A771E5712572EA
:10338000657202E0607A00287ED1B068C143890787
:103390005DD0810779D0810778D5E0790190002848
:1033A00016D065642773B08AB16900040902401819
:1033B000F1694018E062308C716A0004090240181B
:1033C000B16A40182063F06A316B000240186063F4
:1033D000A0790090002816D06773B08AB169000404
:1033E00009024018F1694018A063308C716A00042A
:1033F00009024018B16A4018E063F06A316B0002BC
:103400004118A5642164207A844600281BD02773C4
:103410006773B08AB169000409024018F169421863
:10342000E262308C716A000409024018B16A4318E4
:103430002363F06A316B0002401860636564A56421
:10344000E363A2632064616B00296ED0ADE0E27992
:10345000002A17D02573E5646564B08AB169000459
:1034600009024018F1694018E062308C716A00046A
:1034700009024018B16A40182063F06A316B0002FB
:1034800040186063A37902E04EE04FE094E0002B27
:1034900017D06573A5642565B08AB1690004090277
:1034A0004018F1694018A063308C716A0004090269
:1034B0004018B16A4018E063F06A316B00024018AE
:1034C0002064207A0090002824D025736573E56479
:1034D0006564A5642565B08AB169000409024018D5
:1034E000F1694018E062318C84460804716A09026F
:1034F0004018B16A411821636046E163A063206C03
:10350000606300280AD0206C002805D000980028AD
:1035100009D101E0606BF4E7002A04D1206C002897
:103520007BD0002B79D0677177E014E0A079002878
:1035300001D0002246E0E079002801D000224CE0D2
:10354000207A002869D00520002220210007FDF7FD
:1035500076FE002255E0216C002923D06046002829
:1035600020D0277159E00000001002401401002013
:1035700010000020C50400005354415455533D250C
:10358000642C25640D0A0000FA0500004F4B0D0A5B
:103590000000000035150000545249474745520DC0
:1035A0000A00000001990029DBD1216C002934D1E7
:1035B00000980028D5D130E0C0072ED0A07900288F
:1035C00007D00122052020210007FDF738FEA57154
:1035D00020E0E07900280AD0012205201021000710
:1035E000FDF72DFEE571E5622563656315E0207A40
:1035F000002812D00520012220210007FDF71FFE20
:103600000122052010210007FDF719FEE562256360
:1036100065632572A563E56325640B490B48FCF7D8
:10362000C5FD0A4982B2FF230846F533FC30FEF798
:10363000DDFE65622846A5628100401C75500F289A
:10364000FADBA062E4E500008C350008640000208D
:10365000010002000400060008000A000C0010002F
:103660002000400080000001000000000000000079
:10367000000000000000000000000000000000004A
:103680000000000000000000010000000200000037
:103690000300000004000000060000000700000016
:1036A0000800000009000000000000000000000009
:1036B0000000000000000000010000000200000007
:1036C0000300000004000000E836000800000020AD
:1036D00064000000040100084C370008640000206A
:1036E0004C0800002001000800000000000000005D
:1036F00000000000000000000000000000000000CA
:1037000000000000000000000000000000000000B9
:1037100000000000000000000000000000000000A9
:103720000000000000000000000000000000000099
:103730000000000000000000000000000100000088
:0C37400004000000000000000024F40061
:04000005080000C12E
:00000001FF
